:1000000019C028C027C026C025C024C023C022C0D4
:1000100021C020C01FC01EC01DC01CC01BC01AC0F4
:1000200019C0436861722066726F6D2053657269F2
:10003000616C000011241FBECFE5D1E0DEBFCDBF53
:1000400010E0A0E6B0E001C01D92A336B107E1F7D1
:10005000F5D026C1D5CFDD9A87FF02C0D89A01C05E
:10006000D89886FF02C0D99A01C0D99885FF02C0EE
:10007000DA9A01C0DA9884FF02C0DB9A01C0DB98EB
:1000800096E09A95F1F700C0DC9AE6E0EA95F1F780
:1000900000C0DC98EFE4F3EC3197F1F700C000000A
:1000A00083FF02C0D89A01C0D89882FF02C0D99AB3
:1000B00001C0D99881FF02C0DA9A01C0DA9880FFA6
:1000C00002C0DB9A01C0DB98F6E0FA95F1F700C0B8
:1000D000DC9A86E08A95F1F700C0DC98EFE4F3EC57
:1000E0003197F1F700C000000895DD988BBB86E0E2
:1000F0008A95F1F700C0DC9A96E09A95F1F700C076
:10010000DC988FE493EC0197F1F700C000000895AC
:10011000CF93DF93EC011092620080916200FE01A8
:10012000E80FF11D849180936100882339F093DFFB
:10013000809162008F5F80936200EFCFDF91CF915B
:1001400008958FE493EC0197F1F700C000008CE074
:10015000CCDF8CE0CADF8CE0C8DF84E0C6DF84E05F
:10016000C4DF81E0C2DF80E0C0DF87E0BEDF80E087
:10017000BCDF86E0BACFDC01FA0110828C918623C5
:10018000E9F78CE18A95F1F7000088E38A95F1F7A9
:1001900000C08C91862319F080818160808388E380
:1001A0008A95F1F700C08C91862319F080818260D6
:1001B000808388E38A95F1F700C08C91862319F03B
:1001C00080818460808388E38A95F1F700C08C91F8
:1001D000862319F080818860808388E38A95F1F70F
:1001E00000C08C91862319F080818061808388E330
:1001F0008A95F1F700C08C91862319F08081806286
:10020000808388E38A95F1F700C08C91862319F0EA
:1002100080818064808388E38A95F1F700C08C91A7
:10022000862319F080818068808388E38A95F1F7BE
:1002300000C08CE18A95F1F70000089580E886BD42
:1002400016BCD898D09AD998D19ADA98D29ADB98D5
:10025000D39ADC98D49ADD98D59A73DF80E045DF95
:1002600084E043DF82E290E053DF83E03EDF80E022
:100270003CDF40E650E060E889E390E07CDF80917D
:100280006000E9DE2FEF88E09DE321508040904040
:10029000E1F700C0000080E028DF88E026DFDECF45
:0402A000F894FFCF00
:00000001FF
